{
  "_format": "hh-sol-artifact-1",
  "contractName": "Notes",
  "sourceName": "contracts/Notes.sol",
  "abi": [
    {
      "inputs": [],
      "name": "Notes__NotAuthorizedToDelete",
      "type": "error"
    },
    {
      "anonymous": false,
      "inputs": [
        {
          "indexed": false,
          "internalType": "address",
          "name": "recipient",
          "type": "address"
        },
        {
          "indexed": false,
          "internalType": "uint256",
          "name": "_noteId",
          "type": "uint256"
        }
      ],
      "name": "AddNote",
      "type": "event"
    },
    {
      "anonymous": false,
      "inputs": [
        {
          "indexed": false,
          "internalType": "uint256",
          "name": "_noteId",
          "type": "uint256"
        },
        {
          "indexed": false,
          "internalType": "bool",
          "name": "isDeleted",
          "type": "bool"
        }
      ],
      "name": "DeleteNote",
      "type": "event"
    },
    {
      "inputs": [
        {
          "internalType": "bool",
          "name": "_isDeleted",
          "type": "bool"
        },
        {
          "internalType": "string",
          "name": "_title",
          "type": "string"
        },
        {
          "internalType": "string",
          "name": "_description",
          "type": "string"
        }
      ],
      "name": "addNote",
      "outputs": [],
      "stateMutability": "nonpayable",
      "type": "function"
    },
    {
      "inputs": [
        {
          "internalType": "uint256",
          "name": "_noteId",
          "type": "uint256"
        },
        {
          "internalType": "bool",
          "name": "_delete",
          "type": "bool"
        }
      ],
      "name": "deleteNote",
      "outputs": [],
      "stateMutability": "nonpayable",
      "type": "function"
    },
    {
      "inputs": [],
      "name": "getNotes",
      "outputs": [
        {
          "components": [
            {
              "internalType": "uint256",
              "name": "noteId",
              "type": "uint256"
            },
            {
              "internalType": "uint256",
              "name": "createdAt",
              "type": "uint256"
            },
            {
              "internalType": "bool",
              "name": "isDeleted",
              "type": "bool"
            },
            {
              "internalType": "string",
              "name": "title",
              "type": "string"
            },
            {
              "internalType": "string",
              "name": "description",
              "type": "string"
            }
          ],
          "internalType": "struct Notes.Note[]",
          "name": "",
          "type": "tuple[]"
        }
      ],
      "stateMutability": "view",
      "type": "function"
    },
    {
      "inputs": [
        {
          "internalType": "uint256",
          "name": "",
          "type": "uint256"
        }
      ],
      "name": "noteId",
      "outputs": [
        {
          "internalType": "address",
          "name": "",
          "type": "address"
        }
      ],
      "stateMutability": "view",
      "type": "function"
    },
    {
      "inputs": [
        {
          "internalType": "uint256",
          "name": "",
          "type": "uint256"
        }
      ],
      "name": "notes",
      "outputs": [
        {
          "internalType": "uint256",
          "name": "noteId",
          "type": "uint256"
        },
        {
          "internalType": "uint256",
          "name": "createdAt",
          "type": "uint256"
        },
        {
          "internalType": "bool",
          "name": "isDeleted",
          "type": "bool"
        },
        {
          "internalType": "string",
          "name": "title",
          "type": "string"
        },
        {
          "internalType": "string",
          "name": "description",
          "type": "string"
        }
      ],
      "stateMutability": "view",
      "type": "function"
    }
  ],
  "bytecode": "0x608060405234801561001057600080fd5b50611104806100206000396000f3fe608060405234801561001057600080fd5b50600436106100575760003560e01c8063163c8fa61461005c57806361c3a7e614610078578063943f6103146100ac578063b4af200d146100c8578063ce379b1c146100e6575b600080fd5b61007660048036038101906100719190610ada565b610116565b005b610092600480360381019061008d9190610aad565b610228565b6040516100a3959493929190610d6c565b60405180910390f35b6100c660048036038101906100c19190610a22565b61038b565b005b6100d06104ef565b6040516100dd9190610d21565b60405180910390f35b61010060048036038101906100fb9190610aad565b610881565b60405161010d9190610cdd565b60405180910390f35b3373ffffffffffffffffffffffffffffffffffffffff166001600084815260200190815260200160002060009054906101000a900473ffffffffffffffffffffffffffffffffffffffff1673ffffffffffffffffffffffffffffffffffffffff16146101ae576040517f4a675ab100000000000000000000000000000000000000000000000000000000815260040160405180910390fd5b80600083815481106101c3576101c261101d565b5b906000526020600020906005020160020160006101000a81548160ff0219169083151502179055507f6841b3dd8a322b907968fe48c87c29e58b063456dde37daf0a185fbc0fac5d34828260405161021c929190610d43565b60405180910390a15050565b6000818154811061023857600080fd5b90600052602060002090600502016000915090508060000154908060010154908060020160009054906101000a900460ff169080600301805461027a90610f13565b80601f01602080910402602001604051908101604052809291908181526020018280546102a690610f13565b80156102f35780601f106102c8576101008083540402835291602001916102f3565b820191906000526020600020905b8154815290600101906020018083116102d657829003601f168201915b50505050509080600401805461030890610f13565b80601f016020809104026020016040519081016040528092919081815260200182805461033490610f13565b80156103815780601f1061035657610100808354040283529160200191610381565b820191906000526020600020905b81548152906001019060200180831161036457829003601f168201915b5050505050905085565b600033905060008080549050905060006040518060a001604052808381526020014281526020018715158152602001868152602001858152509080600181540180825580915050600190039060005260206000209060050201600090919091909150600082015181600001556020820151816001015560408201518160020160006101000a81548160ff021916908315150217905550606082015181600301908051906020019061043d9291906108b4565b50608082015181600401908051906020019061045a9291906108b4565b505050816001600083815260200190815260200160002060006101000a81548173ffffffffffffffffffffffffffffffffffffffff021916908373ffffffffffffffffffffffffffffffffffffffff1602179055507f912754c76edafaf68c916e1f83ee7b1e5330e7f965b691aac1d9773f928424b282826040516104e0929190610cf8565b60405180910390a15050505050565b60606000808054905067ffffffffffffffff8111156105115761051061104c565b5b60405190808252806020026020018201604052801561054a57816020015b61053761093a565b81526020019060019003908161052f5790505b5090506000805b6000805490508110156107c7573373ffffffffffffffffffffffffffffffffffffffff166001600083815260200190815260200160002060009054906101000a900473ffffffffffffffffffffffffffffffffffffffff1673ffffffffffffffffffffffffffffffffffffffff16148015610602575060001515600082815481106105df576105de61101d565b5b906000526020600020906005020160020160009054906101000a900460ff161515145b156107b4576000818154811061061b5761061a61101d565b5b90600052602060002090600502016040518060a001604052908160008201548152602001600182015481526020016002820160009054906101000a900460ff1615151515815260200160038201805461067390610f13565b80601f016020809104026020016040519081016040528092919081815260200182805461069f90610f13565b80156106ec5780601f106106c1576101008083540402835291602001916106ec565b820191906000526020600020905b8154815290600101906020018083116106cf57829003601f168201915b5050505050815260200160048201805461070590610f13565b80601f016020809104026020016040519081016040528092919081815260200182805461073190610f13565b801561077e5780601f106107535761010080835404028352916020019161077e565b820191906000526020600020905b81548152906001019060200180831161076157829003601f168201915b50505050508152505083838151811061079a5761079961101d565b5b602002602001018190525081806107b090610f76565b9250505b80806107bf90610f76565b915050610551565b5060008167ffffffffffffffff8111156107e4576107e361104c565b5b60405190808252806020026020018201604052801561081d57816020015b61080a61093a565b8152602001906001900390816108025790505b50905060005b828110156108775783818151811061083e5761083d61101d565b5b60200260200101518282815181106108595761085861101d565b5b6020026020010181905250808061086f90610f76565b915050610823565b5080935050505090565b60016020528060005260406000206000915054906101000a900473ffffffffffffffffffffffffffffffffffffffff1681565b8280546108c090610f13565b90600052602060002090601f0160209004810192826108e25760008555610929565b82601f106108fb57805160ff1916838001178555610929565b82800160010185558215610929579182015b8281111561092857825182559160200191906001019061090d565b5b509050610936919061096b565b5090565b6040518060a00160405280600081526020016000815260200160001515815260200160608152602001606081525090565b5b8082111561098457600081600090555060010161096c565b5090565b600061099b61099684610df2565b610dcd565b9050828152602081018484840111156109b7576109b6611080565b5b6109c2848285610ed1565b509392505050565b6000813590506109d9816110a0565b92915050565b600082601f8301126109f4576109f361107b565b5b8135610a04848260208601610988565b91505092915050565b600081359050610a1c816110b7565b92915050565b600080600060608486031215610a3b57610a3a61108a565b5b6000610a49868287016109ca565b935050602084013567ffffffffffffffff811115610a6a57610a69611085565b5b610a76868287016109df565b925050604084013567ffffffffffffffff811115610a9757610a96611085565b5b610aa3868287016109df565b9150509250925092565b600060208284031215610ac357610ac261108a565b5b6000610ad184828501610a0d565b91505092915050565b60008060408385031215610af157610af061108a565b5b6000610aff85828601610a0d565b9250506020610b10858286016109ca565b9150509250929050565b6000610b268383610c42565b905092915050565b610b3781610e89565b82525050565b6000610b4882610e33565b610b528185610e56565b935083602082028501610b6485610e23565b8060005b85811015610ba05784840389528151610b818582610b1a565b9450610b8c83610e49565b925060208a01995050600181019050610b68565b50829750879550505050505092915050565b610bbb81610e9b565b82525050565b610bca81610e9b565b82525050565b6000610bdb82610e3e565b610be58185610e67565b9350610bf5818560208601610ee0565b610bfe8161108f565b840191505092915050565b6000610c1482610e3e565b610c1e8185610e78565b9350610c2e818560208601610ee0565b610c378161108f565b840191505092915050565b600060a083016000830151610c5a6000860182610cbf565b506020830151610c6d6020860182610cbf565b506040830151610c806040860182610bb2565b5060608301518482036060860152610c988282610bd0565b91505060808301518482036080860152610cb28282610bd0565b9150508091505092915050565b610cc881610ec7565b82525050565b610cd781610ec7565b82525050565b6000602082019050610cf26000830184610b2e565b92915050565b6000604082019050610d0d6000830185610b2e565b610d1a6020830184610cce565b9392505050565b60006020820190508181036000830152610d3b8184610b3d565b905092915050565b6000604082019050610d586000830185610cce565b610d656020830184610bc1565b9392505050565b600060a082019050610d816000830188610cce565b610d8e6020830187610cce565b610d9b6040830186610bc1565b8181036060830152610dad8185610c09565b90508181036080830152610dc18184610c09565b90509695505050505050565b6000610dd7610de8565b9050610de38282610f45565b919050565b6000604051905090565b600067ffffffffffffffff821115610e0d57610e0c61104c565b5b610e168261108f565b9050602081019050919050565b6000819050602082019050919050565b600081519050919050565b600081519050919050565b6000602082019050919050565b600082825260208201905092915050565b600082825260208201905092915050565b600082825260208201905092915050565b6000610e9482610ea7565b9050919050565b60008115159050919050565b600073ffffffffffffffffffffffffffffffffffffffff82169050919050565b6000819050919050565b82818337600083830152505050565b60005b83811015610efe578082015181840152602081019050610ee3565b83811115610f0d576000848401525b50505050565b60006002820490506001821680610f2b57607f821691505b60208210811415610f3f57610f3e610fee565b5b50919050565b610f4e8261108f565b810181811067ffffffffffffffff82111715610f6d57610f6c61104c565b5b80604052505050565b6000610f8182610ec7565b91507fffffffffffffffffffffffffffffffffffffffffffffffffffffffffffffffff821415610fb457610fb3610fbf565b5b600182019050919050565b7f4e487b7100000000000000000000000000000000000000000000000000000000600052601160045260246000fd5b7f4e487b7100000000000000000000000000000000000000000000000000000000600052602260045260246000fd5b7f4e487b7100000000000000000000000000000000000000000000000000000000600052603260045260246000fd5b7f4e487b7100000000000000000000000000000000000000000000000000000000600052604160045260246000fd5b600080fd5b600080fd5b600080fd5b600080fd5b6000601f19601f8301169050919050565b6110a981610e9b565b81146110b457600080fd5b50565b6110c081610ec7565b81146110cb57600080fd5b5056fea264697066735822122042542d060c0ff0156f34111b543a5fa21100816c3fe2c53d59002ad3e7a716e864736f6c63430008070033",
  "linkReferences": {},
  "deployedLinkReferences": {}
}